:020000022000DC
:1060000000000120B5620200DD620200DF620200D2
:10601000E1620200E3620200E562020000000000AB
:10602000000000000000000000000000E762020025
:10603000E962020000000000EB620200ED62020073
:10604000A9A90200EF62020041B20200EF62020061
:10605000EF620200EF62020055AD0200B5B202002D
:10606000EF620200EF620200EF620200EF620200E4
:10607000EF620200EF620200EF620200EF620200D4
:10608000EF6202000D7D0200EF620200EF6202008B
:10609000EF620200EF620200E5180300EF62020007
:1060A000EF620200EF620200EF620200EF620200A4
:1060B000EF620200EF62020000000000000000003A
:1060C000EF620200EF620200EF620200EF62020084
:1060D000EF620200EF620200EF62020000000000C7
:1060E00000000000000000000000000000000000B0
:1060F00000000000000000000000000000000000A0
:10610000000000000000000000000000000000008F
:10611000000000000000000000000000000000007F
:10612000000000000000000000000000000000006F
:10613000000000000000000000000000000000005F
:10614000000000000000000000000000000000004F
:10615000000000000000000000000000000000003F
:10616000000000000000000000000000000000002F
:10617000000000000000000000000000000000001F
:10618000000000000000000000000000000000000F
:1061900000000000000000000000000000000000FF
:1061A00000000000000000000000000000000000EF
:1061B00000000000000000000000000000000000DF
:1061C00000000000000000000000000000000000CF
:1061D00000000000000000000000000000000000BF
:1061E00000000000000000000000000000000000AF
:1061F000000000000000000000000000000000009F
:1062000010B5054C237833B9044B13B10448AFF3F0
:1062100000800123237010BD581F002000000000E3
:10622000DC57030008B5034B1BB103490348AFF328
:10623000008008BD000000005C1F0020DC57030048
:10624000154B002B08BF134B9D46A3F5803A002148
:106250008B460F461348144A121A0CF0E9FD0F4BF7
:10626000002B00D098470E4B002B00D09847002001
:10627000002104000D000D48002802D00C48AFF3A7
:1062800000800CF095FD2000290005F067FE0CF061
:106290007BFD00BF0000080000000120000000009E
:1062A00000000000581F0020F02F00200000000018
:1062B000000000000649074A074B9B1A03DD043B18
:1062C000C858D050FBDC04F06DF8FFF7B9FF0000B0
:1062D00084590300C8180020581F0020FEE7FEE77D
:1062E000FEE7FEE7FEE7FEE7FEE7FEE7FEE7FEE786
:1062F000F0B595B000241D460E460846174603F03B
:106300003BFE304623460822099505A91A9D0897A9
:106310000D950A948DF82C400C9403F091FE9DF895
:1063200014308DF81140DDE9061003F00302012A54
:10633000CDE9020128D0022A04D0304603F020FE25
:1063400015B0F0BDBDF81650C3F3C2038DF8103080
:10635000C5F389150827082D2C4628BF08243B467D
:1063600022460EA9304603F06BFE2D1B214608ABDA
:1063700002AA0EA8274400F04DFE002DEBD13046B6
:1063800003F0FEFD15B0F0BDBDF81470059DC7F318
:106390008312C3F3C2040EA93046920008238DF87D
:1063A0001040C7F3831703F04BFEC5F3952508ABE8
:1063B0003A4628460EA9009302AB00F0B3FD3046E2
:1063C00003F0DEFD15B0F0BD704700BF00B583B02F
:1063D000044B0093044A4023FFF78AFF03B05DF8A3
:1063E00004FB00BFED630200781F002038B50E48A3
:1063F0000E4D03780E4CEB5C00252570D2B253B1E4
:10640000043005F0D1FC58B90A4B1B7813B123783E
:10641000002BFCD038BD0C3005F03CFA0028F3D03E
:1064200001F058F8F0E700BFC8180020C02F002086
:10643000B81F0020741F00202DE9704319481A4A24
:106440000378D35C88B02BB3043005F029FC174DDA
:106450000FCD6C460FC495E80F004FF0EB7684E843
:106460000F004FF006084FF0FF394FF0FF344FF0A8
:10647000FF350C48069600226946CDE90089CDE932
:10648000024504F027FA48B9094B00221A7008B0F7
:10649000BDE870830C3005F097F9D8E701F01AF8E1
:1064A000F2E700BFC8180020C02F0020603A0300A8
:1064B000741F002099B10E4B0E495B1ADB0815D0F2
:1064C00030B400220C4D02E0013293420BD035F87B
:1064D00022408442F8D151F8320030BC704705495F
:1064E00051F830007047002030BC704718467047A4
:1064F0006C5903007C580300581F0020094B0139D8
:1065000003EBC00003290BD8DFE801F00402080602
:106510000420704702207047407970470079704727
:10652000002070477C5803002DE9F047954CD4E9D2
:1065300000239A4284B063D00023C4F81834BFF318
:106540004F8FD4E9013503EA0501CA1C04EB82062A
:1065500014F82220500719D52768327802F0030278
:10656000012A43D0022A03D17288023303EB92132B
:1065700005EA0301D4F81804CA1C04EB820628B902
:106580009F4239D914F822205207E6D404EB810146
:106590005A1CC96801912A4004EB820201F00301F0
:1065A000D2680292022903F102062DD0012900F0DF
:1065B0009580D4F810543DB12B6828469B689847C5
:1065C000EB681D68002DF7D16F48704B7049C01AF9
:1065D000C008000440F0020000F0E0F8D4E9003008
:1065E000C01A18BF012004B0BDE8F087328802331A
:1065F000C2F383121344BBE7676004B0BDE8F087C1
:10660000002004B0BDE8F087BDF806306148C3F350
:106610008919B9F1500FC84628BF4FF0500868F3E8
:106620008F1308F10801ADF8063003F03DFC074672
:106630000028BED003F0A0FC0023082201A93846A0
:1066400003F0CAFC25EA06030133B8EB830F4FEAD7
:10665000830A7DD9BAF1000F00F08D8005EA0601AA
:106660000331A8EB0A0804EB81010823524638469F
:106670005FFA88F803F0B0FC474942460AF1080384
:10668000384603F0A9FC09F1030906EB9906D4F892
:106690001834002B6BD1D4F8105465B1EB685A79DB
:1066A00028463946002A5ED02B681B689847EB685D
:1066B0001D68002DF2D1384603F062FC00230DF175
:1066C00003008DF8033001F091F9D4F8183403B9C0
:1066D00066609DF8030001F0AFF97FE7BDF8043074
:1066E0002C48C3F38312062A28BF0622911C62F3AA
:1066F00089138900ADF8043003F0D6FB0746002863
:106700003FF457AF03F038FC0023082201A93846B4
:1067100003F062FCBDF8043013F4707FB7D04FF083
:106720000008314629404FEA88030331083304EB5F
:1067300081010422384603F04FFCBDF8043008F113
:106740000108C3F38313434506F10106E9D89EE728
:1067500005EA0601033104EB81014246082338466D
:1067600003F03AFC8FE71D68002D97D1A3E7384668
:1067700003F006FC32E7084942460823384603F096
:106780002BFC80E790200020AC5803007C580300CD
:10679000A03A0300685803009C2000202DE9F04F28
:1067A000644C87B0002306460DF10B008DF80B30CA
:1067B000A568019101F01AF9D4E9012327681A4468
:1067C0000132D21B012A00F2858004F21C4804F534
:1067D000836A04F214491BE0BDF80E30C3F3891339
:1067E0000333090C0BEB930B4846009102F0A6FC17
:1067F000009900283ED04046C4F804B002F072FC74
:10680000D4E90113226819440131891A012962D897
:106810000121404602F066FC504602F07FFC4846EB
:1068200002F07CFCD4E9013C03EA0C02D11C04EB2D
:10683000810014F821E01EF0040F0EF0040129D1AC
:1068400004EB8202591CD268039201EA0C0104EBAA
:10685000810102F00302012AC96803F1020B32D060
:10686000022AB9D000214846009102F067FC009945
:106870000028C0D14046C1E743880BEB93130CEAD4
:106880000302D11C04EB810014F8211001F0040173
:106890000029D5D090F800E00EF0030EBEF1010FF4
:1068A0000BD0BEF1020F03F1020B02F1030EE3D095
:1068B00004EB8E000029EDD1C2E702880233C2F357
:1068C00083121344DBE7BDF80C30C3F38313090CC8
:1068D0009B4489E73A4613400333023205219DF871
:1068E0000B0044F82310226001F0A6F800211248A2
:1068F00002F0B2FB80F31000F1007B1C2B40019AE8
:1069000001F038013D4004EB830341F00101000434
:10691000033540EA164641EA8221DE6044F825103C
:1069200094F820341BB1FFF7FFFD0028FBD107B01E
:10693000BDE8F08F90200020AC2400202DE9F04F1E
:10694000684C89B0002307460DF11300CDE902120F
:106950008DF81330A56801F049F8D4E901232668C1
:106960001A440132921B022A00F2858004F21C486C
:1069700004F5836A04F214491BE0BDF81630C3F332
:1069800089130333090C0BEB930B4846019102F07A
:10699000D5FB019900283ED04046C4F804B002F06F
:1069A000A1FBD4E90113226819440131891A022993
:1069B00062D80121404602F095FB504602F0AEFB42
:1069C000484602F0ABFBD4E9013C03EA0C02D11CBF
:1069D00004EB810014F821E01EF0040F0EF0040116
:1069E00029D104EB8202591CD268059201EA0C01FC
:1069F00004EB810102F00302012AC96803F1020BD2
:106A000032D0022AB9D000214846019102F096FB0B
:106A100001990028C0D14046C1E743880BEB93138E
:106A20000CEA0302D11C04EB810014F8211001F0E0
:106A300004010029D5D090F800E00EF0030EBEF15D
:106A4000010F0BD0BEF1020F03F1020B02F1030E96
:106A5000E3D004EB8E000029EDD1C2E702880233B7
:106A6000C2F383121344DBE7BDF81430C3F383137E
:106A7000090C9B4489E73246134003330332452116
:106A80009DF8130044F82310226000F0D5FFB31CDA
:106A90002B4004EB8303039A1348DA60002102F0D1
:106AA000DBFA80F31000F900731C2B40029A01F00E
:106AB0003801354004EB830341F041010004033504
:106AC00040EA174741EA8221DF6044F8251094F834
:106AD00020341BB1FFF728FD0028FBD109B0BDE829
:106AE000F08F00BF90200020AC2400202DE9F04F53
:106AF0006C4C89B0002607460DF11300CDE9011258
:106B000003938DF81360A56800F070FFD4E90123AA
:106B100026681A440132921B032A00F2858004F28F
:106B20001C4804F5836A04F214491BE0BDF81630D2
:106B3000C3F389130333090C0BEB930B4846009105
:106B400002F0FCFA009900283ED04046C4F804B098
:106B500002F0C8FAD4E90113226819440131891AF4
:106B6000032962D80121404602F0BCFA504602F0E7
:106B7000D5FA484602F0D2FAD4E9013C03EA0C0205
:106B8000D11C04EB810014F821E01EF0040F0EF07C
:106B9000040129D104EB8202591CD268059201EA52
:106BA0000C0104EB810102F00302012AC96803F120
:106BB000020B32D0022AB9D000214846009102F0DF
:106BC000BDFA00990028C0D14046C1E743880BEBCD
:106BD00093130CEA0302D11C04EB810014F821107A
:106BE00001F004010029D5D090F800E00EF0030E6A
:106BF000BEF1010F0BD0BEF1020F03F1020B02F147
:106C0000030EE3D004EB8E000029EDD1C2E7028829
:106C10000233C2F383121344DBE7BDF81430C3F32D
:106C20008313090C9B4489E7324613400333043233
:106C300085219DF8130044F82310226000F0FCFE2B
:106C4000B21C2A40F31C2B4004EB820204EB830CA1
:106C5000029BD3600021039B1348CCF80C3002F058
:106C6000FBF980F31000F900731C2B40019A01F02E
:106C70003801354004EB830341F081010004033502
:106C800040EA174741EA8221DF6044F8251094F872
:106C900020341BB1FFF748FC0028FBD109B0BDE848
:106CA000F08F00BF90200020AC2400202DE9F04F91
:106CB0006F4C89B0002607460DF11300CDE9011293
:106CC00003938DF81360A56800F090FED4E90123CA
:106CD00026681A440132921B042A00F2858004F2CD
:106CE0001C4804F5836A04F214491BE0BDF8163011
:106CF000C3F389130333090C0BEB930B4846009144
:106D000002F01CFA009900283ED04046C4F804B0B6
:106D100002F0E8F9D4E90113226819440131891A13
:106D2000042962D80121404602F0DCF9504602F005
:106D3000F5F9484602F0F2F9D4E9013C03EA0C0205
:106D4000D11C04EB810014F821E01EF0040F0EF0BA
:106D5000040129D104EB8202591CD268059201EA90
:106D60000C0104EB810102F00302012AC96803F15E
:106D7000020B32D0022AB9D000214846009102F01D
:106D8000DDF900990028C0D14046C1E743880BEBEC
:106D900093130CEA0302D11C04EB810014F82110B8
:106DA00001F004010029D5D090F800E00EF0030EA8
:106DB000BEF1010F0BD0BEF1020F03F1020B02F185
:106DC000030EE3D004EB8E000029EDD1C2E7028868
:106DD0000233C2F383121344DBE7BDF81430C3F36C
:106DE0008313090C9B4489E7324613400333053271
:106DF000C5219DF8130044F82310226000F01CFE0A
:106E0000B01C2840F21C331D2B402A4004EB8000AC
:106E100004EB820204EB830C029BC360039BD360F0
:106E20000021129B1348CCF80C3002F015F980F3C6
:106E30001000F900731C2B40019A01F03801354015
:106E400004EB830341F0C1010004033540EA174716
:106E500041EA8221DF6044F8251094F820341BB108
:106E6000FFF762FB0028FBD109B0BDE8F08F00BF3F
:106E700090200020AC24002038B5094BD3F81044F2
:106E8000012583F820544CB1E3685D7123682046E6
:106E90005B689847E3681C68002CF5D138BD00BFDB
:106EA0009020002030B5C38885B004460D461BBB3A
:106EB000217A05291ED0627A82B9134AA08852F835
:106EC000212003920021FFF7F5FA039A0F490346A8
:106ED000284605B0BDE8304002F0ACB9A088FFF705
:106EE0000DFB0B4B0B4953F82020284602F0A2F96A
:106EF000217AE2E705B030BD074A00920749084A07
:106F0000284602F097F9D3E7843B0300E43A0300F4
:106F1000603B0300E03A0300D83A0300C03A0300A4
:106F2000B83A03002DE9F04385B04FF0000C0C9CFB
:106F3000814694F80C8084F80CC00E46174618461B
:106F400021461D46FFF7AEFF062F09D8DFE807F000
:106F5000042E343B444F1F004946204602F06AF994
:106F60002B7A052B05D06B7A5BB92749204602F0B6
:106F700061F9204602F052F984F80C8005B0BDE8B2
:106F8000F083224A2249204602F054F9EDE7D6E97F
:106F90000413F2680393B3680291CDE900324946C5
:106FA000D6E90023204602F045F9D9E73268494680
:106FB000204602F03FF9D3E7D6E9002349462046B0
:106FC00002F038F9CCE7B3680093D6E900234946CC
:106FD000204602F02FF9C3E7D6E90232019200936E
:106FE000D6E900234946204602F024F9B8E7D6E95D
:106FF0000321B3680291CDE900324946D6E9002366
:10700000204602F017F9ABE7F03A0300D83A030044
:10701000E03A0300082900D970472DE9F04F9B465C
:1070200083B000241B7B8BF80C400D460646594666
:10703000104690460193DFF8D0902C4FFFF732FFB7
:1070400005E0325D013402F0F5F8082C09D0A542C4
:1070500039465846F5D84946013402F0EBF8082C79
:10706000F5D12349DFF8A490224C234F584602F073
:10707000E1F84FF0000A0DE0D15D11F0970F08BF65
:107080002E22214658460AF1010A02F0D3F8BAF13D
:10709000080F10D0554505D916F80A207E2AEBD9DD
:1070A0002E22EEE7494658460AF1010A02F0C2F8DC
:1070B000BAF1080FEED198F80830052B02D098F8F5
:1070C000093063B90D49584602F0B4F8584602F049
:1070D000A5F8019B8BF80C3003B0BDE8F08F084A8F
:1070E0000849584602F0A6F8ECE700BFF43A03005E
:1070F000003B0300043B0300A3560300F03A0300E7
:10710000D83A0300E03A0300FC3A0300EC3A0300EB
:1071100038B5174B1D783DB3164B1968C0B2002324
:107120000C4604E00133AB4204F108041CD011F812
:1071300033209042F6D103F003FE6378A3F10103FC
:10714000B3FA83F35B09834200D038BD0A4BD3E91D
:1071500000231343F9D1094B094819680022BDE8FF
:107160003840490800F0DABB00231B78FFDE00BF7F
:10717000B4240020F8240020E0240020B8240020BB
:10718000C02400202DE9F04FDFF8548298F8003039
:1071900083B0002B00F01981DFF848928C4F8D4EA0
:1071A00000254FF0010A3C6814F8350003F0C8FDD3
:1071B00004EBC50314F835405B784FEA540C14F027
:1071C000010E16F80C10A3F10103B3FA83F314BFF8
:1071D0000A0901F00F025B09042A00F2A080DFE82F
:1071E00002F0725D32200300834240F0AB80BEF1BA
:1071F000000F0CBFF0230F2303EA01030CBF032190
:107200003021194306F80C1098F8002001359542FA
:10721000C9DBD9E90023134340F0CD8003B0BDE8BA
:10722000F08F83427BD0BEF1000F0CBFF0230F2301
:1072300003EA01030CBF04214021194306F80C1096
:1072400098F80020E2E783426CD1BEF1000F0CBF3A
:10725000F0230F2303EA010398F800200CBF032159
:107260003021194306F80C10002AD2D0D7F800C0FC
:107270000023614603E0934201F10801C6D01CF8E7
:107280003300A04203F10103F5D14B68002BBDD0C0
:1072900020460121984798F80020B7E7834219BF9C
:1072A0000020034602232020BEF1000F0CBFF02275
:1072B0000F2201EA020118BF03460B4306F80C3007
:1072C00098F80020A2E7834229D1BEF1000F14BF35
:1072D0000F23F02303EA010314BF102101211943F6
:1072E0000DF107004FF0000306F80C108DF8073081
:1072F00000F07CFBD9E90032A4F12001C4F12000A8
:107300000AFA01F12AFA00F001430AFA04F41143DF
:1073100023439DF80700C9E9003100F08DFB98F880
:10732000002073E7BEF1000F0CBFF0230F2303EA28
:1073300001030CBF01211021194306F80C1098F825
:10734000002063E7BEF1000F14BF0F23F02398F86D
:107350000000194006F80C1098B1D7F800C00023BF
:10736000624603E0834202F108020AD01CF833109F
:10737000A14203F10103F5D1536813B10021204666
:1073800098474FF000030DF107008DF8073000F02B
:107390002DFBD9E90032A4F12001C4F120000AFA42
:1073A00001F12AFA00F001430AFA04F422EA010189
:1073B00023EA0403ADE7084B08481968002249088E
:1073C00000F0ACFA03B0BDE8F08FDFF8189020E7CA
:1073D000F8240020E8240020B8240020C024002045
:1073E000B4240020E0240020092A43D92DE9F041EB
:1073F00082B0144606460D4603F056FB002832D0F4
:10740000214A2249224B16600D7022481C6000213F
:1074100010220BF00DFD204B002000216C1EC3E953
:107420000001E4B245B3DFF87C8006EBC404032717
:1074300002E0A64220D01C469DF80630A5782078B0
:107440008DF8047023F00703424601A98DF8063039
:107450008DF8055003F032FBA4F108030028E8D0B2
:1074600002B0BDE8F08103F0D5FA0028C8D002B020
:10747000BDE8F08107207047084A0948002100F064
:107480003FFA02B0BDE8F081F8240020B4240020C7
:10749000B8240020E8240020E024002085710200A8
:1074A000A43B03001171020070B5084D2B785BB14D
:1074B000074E00243368012113F8340003F0E2FB87
:1074C0002B780134A342F5D8002070BDB4240020ED
:1074D000F824002000B585B00346002101AA44F23B
:1074E0000100CDE90111039300F004F805B05DF847
:1074F00004FB00BF10B572B6FFF7BEFCFFF714F82F
:107500000028FBD1104B114C1149E41AE408240463
:1075100044F00100FFF742F90E4B1B68DB0700D572
:1075200000BE0D4944F00200FFF738F9BFF34F8F5A
:107530000A490B4BCA6802F4E0621343CB60BFF305
:107540004F8F00BFFDE700BF7C580300AC5803001D
:10755000A83B0300F0ED00E0B43B030000ED00E0C9
:107560000400FA05D0E90223D1E90201994208BFDB
:1075700090422CBF01200020704700BF2DE9F04F42
:107580002DED028B85B0064600F080FB40B1B54A78
:10759000D2E9003113F1807341F10001C2E90031F9
:1075A0000021304600F08EFBAF4C60B1236853B130
:1075B000AE4B25681B7823B11DB12B7F002B40F00B
:1075C0001C81002323600121304600F07BFB002852
:1075D00040F0F680A64803A901F088FC78B3A54DD9
:1075E000DFF88882A24F0BE0002B00F0CD8003A9CA
:1075F000384601F0ABFC03A9384601F077FCF0B146
:107600000378012B12D0022BEED128464FF000094F
:1076100002F088FE30B180F81C90284602F082FE0D
:107620000028F8D1012388F80030E0E7416823689A
:10763000994200F0BA80284602F07EFED7E7DFF8D4
:1076400034828D4FDFF81C9208EE106A37E0404616
:1076500002F068FE05463846AB68EA68019300927E
:1076600000F040FB854E8446D9E90001D6E90023AD
:1076700010EB0C0041F10001994208BF9042DDE996
:10768000002303D210F1807041F10001B3EB000A36
:1076900062EB010BBAF1010F7BF1000329DBBAF5B4
:1076A000350F6BD2AA684FF496030021384600F0DC
:1076B00067FA00285AD00D281FD0002323604046C7
:1076C00002F036FE002873D02368002BBFD0236859
:1076D000D0E90201D3E90223994208BF904248D27F
:1076E00023681B7F002BB2D02168404602F006FEC3
:1076F000ADE70021384600F0D9FA5C4B1B78002B2F
:10770000DBD02B7F002BD8D0384600F0EBFA844634
:10771000D9E90001D6E9002310EB0C0041F100018A
:10772000994208BF904203D210F1807041F10001EC
:10773000D5E90223994208BF904259D32B6903B976
:107740002B77D5E90530984729690029B5D02B7FDB
:10775000002BB2D0D5E90223521843F10003C5E94A
:1077600002232946404602F0C9FDA6E72368BBB1C3
:10777000256005B0BDEC028BBDE8F08F384600F007
:10778000B1FA3F4A02448EE743681A7F002A7FF429
:107790002EAF01221A774168284602F0AFFD26E796
:1077A00018EE100A00F0BEF9E2E7002323601EE79E
:1077B0002368002BDDD118EE100A00F0B7F9D8E7E6
:1077C0002D482E4D00F08EFA264BD3E90089D5E9DD
:1077D000002318EB000849F10009994508BF9045BE
:1077E00003D218F1807849F10009C5E90089F1E672
:1077F0002946404602F082FD5FE71F4800F072FA1A
:10780000184A1E4BD2E90089D3E9002318EB00087F
:1078100049F10009994508BF904503D218F18078D5
:1078200049F10009D5E90223994508BF904529D3BC
:107830002B6903B92B77D5E90530984729690029C9
:107840003FF4BFAE2B7F002B3FF4BBAED5E9022344
:10785000521843F10003C5E902230648294602F005
:107860004DFDAEE6002500208025002008250020E3
:1078700064250020D43B0300E41800207825002074
:10788000FFFFB4000248294602F038FD99E600BF28
:10789000D43B030010B5134B13491B68134882B047
:1078A00058220193082301F0CBFA044610B1204678
:1078B00002B010BD0E4A0F4801A900F0D5F80446E9
:1078C0000028F4D10B48012100F0D6F90123194614
:1078D000094A084800F02EF9084B012220461A7088
:1078E00002B010BDD03B03000C2500206425002011
:1078F0007D750200E4180020FFFF7F0008250020AE
:107900004AB1A1F101010368B1FA81F14909C3E962
:107910000412002070470720704700BF037F0BB19F
:1079200000207047F0B5826183B004461A480D46C6
:1079300000F0D8F9194B1A49D3E90023D1E90067BF
:10794000121843F10003BB4208BFB24203D212F146
:10795000807243F100035219216943F10003C4E925
:10796000022301B125610F4801A901F081FA48B154
:1079700000254460057001A90A4801F0A7FA20B962
:1079800003B0F0BD042003B0F0BD034800F0AEF931
:10799000284603B0F0BD00BFE418002000250020F9
:1079A000782500206425002030B5002583B00446EA
:1079B000057701A90B4801F05BFA78B10122446018
:1079C000027001A9074801F081FA08B903B030BD7F
:1079D000054800F08BF9284603B030BD042003B001
:1079E00030BD00BF64250020E418002070B4EFF320
:1079F000108472B60D4B9A68AAB90D490D4E012537
:107A00009D60D1F8805035401D60C1F88060D1F88C
:107A100084505D604FF0FF33C1F88430027004B9C8
:107A200062B670BC704701230370F8E7B42F0020E2
:107A300000E100E0FC06FFBD094B9A687AB170B91D
:107A400010B4EFF3108172B6064A1C6814605C68CB
:107A50005460986001B962B65DF8044B7047704796
:107A6000B42F002000E100E070B5264C4379264E8B
:107A700004EBC30546F823202D79002D35D103688A
:107A80000A88C3F8082590F904308A78002B24DB93
:107A900003F1604303F561435201D2B283F800233E
:107AA00090F90420194E1A4B012502F01F015209CA
:107AB00005FA01F146F82210164E4279164944F8AB
:107AC0003200981B04EBC204C008000440F003001D
:107AD0002571FEF763FE002070BD104903F00F030F
:107AE00052011944D2B20A76DAE70A4B08480C4927
:107AF000C01AC008000440F00200FEF74FFE082044
:107B000070BD00BF842500208C25002000E100E02E
:107B1000BC5803007C580300043C0300FCEC00E06C
:107B2000E03B0300036801221A60704703680122EA
:107B30005A607047F0B404684FF480358D40C4F843
:107B40000853066801F15004C6F84853A4000668BB
:107B5000A4B20027375182B036590468019601F566
:107B6000A87122F07F42019E44F821200268C2F8E9
:107B7000445313B10368C3F8045302B0F0BC704718
:107B80002DE9F04704464FF4803600688E40C0F877
:107B900048632068C0F80863206800EB81058A46C6
:107BA000D0F80415D5F84005C5F840150AF1500580
:107BB000AD002768ADB24FF0000847F8058082B0ED
:107BC000401A7F59009720F07F40012822F07F471C
:107BD0009946009A41D02268D2F80455C2F844630D
:107BE0007A1B22F07F42012A0AF5A87125D022686B
:107BF00042F821702068D0F804557A1BC9F1FF13B0
:107C0000013A03F57F4322F07F42934211D342B100
:107C1000C0F8446323680020C3F8046302B0BDE8E1
:107C2000F087013740F821702068D0F804359D4274
:107C3000EED00D2002B0BDE8F08720680D4B013773
:107C400040F8217043F001034FF4806098472068AA
:107C5000D0F804359D42DBD0EBE7064A4FF4806054
:107C600042F001029047226842F805805259019281
:107C7000019AB0E7203C030002680223C2F84433B3
:107C800011B10268C2F80433704700BF0368D3F82B
:107C9000040100B97047002282B0C3F80421D3F870
:107CA00004310193019B012002B0704702684FF438
:107CB000803303FA01F1C2F848130368C3F80813CC
:107CC000704700BF50318900036889B2585800B925
:107CD000704700225A5082B05B580193019B0120EB
:107CE00002B070470368D3F80405704790F9043078
:107CF00005485A090121403203F01F0301FA03F33A
:107D000040F82230704700BF00E100E0024A034B18
:107D100010681B68184700BF842500208C250020B0
:107D2000F0B543688C461BB1324AD468A3423CD2BA
:107D30000023314EACF8003073684FF0010E03F5AC
:107D400080544FF6FF7708339C420ED8BEF1020FE5
:107D5000ACF800E006F114064AD0736803F58054CD
:107D600008339C424FF0020EF0D91A680132EDD070
:107D70005A88033203EB82029442E7D39D88BD42C6
:107D800009D01D883DB19D68691C04D00168A942D5
:107D900005D01346D8E79442D8D91346E5E7174AE9
:107DA0004360138903810120F0BD12699342BFD85B
:107DB00013F00305BCD1114A048912899442B7D14A
:107DC00004689A689442B3D10B484268934203D93D
:107DD00002F58052934207D38269934208D902F593
:107DE0008052934204D20125ACF800500120F0BD2E
:107DF0000020F0BD441F0020D0250020B425002025
:107E00002DE9F04F9C4E8BB004464FF6FF77356856
:107E1000002D00F0CB802A78531E052B00F29081B4
:107E2000DFE803F05C2323030341002C40F0C5800E
:107E30002B79012B00F0C082022B00F0DA80002B9E
:107E400000F092820DF11408C8E902440594C8F8C4
:107E5000104048F20E6406942B78013B052B4DD858
:107E6000DFE803F0756685799949B5F814A0002C10
:107E700040F05482DFF82082A97D0AEB8A0308EBE8
:107E800083034FEA8A091C895B6803EB8404062993
:107E900000F27B84DFE811F02B021802FE01EB01F7
:107EA000CA01B0019601002C40F08780DFF8ECC1D8
:107EB0009CF80C30002B00F0C4809CF800308CF84B
:107EC0000C40013B062B00F23B81DFE813F0190365
:107ED000F30224010C013901DD02E900002C40F01D
:107EE00015822B79032B00F29F80DFE813F05F01EE
:107EF00072005401340105238DF814305F4C04F1F5
:107F0000100554F8043B404603B19847A542F8D108
:107F10005B495C480024346001F018F85A4801219C
:107F200001F0EEF800287FF472AF0BB0BDE8F08FDF
:107F300001238DF814302B89ADF82030AB88ADF8D3
:107F40002230EB68079300238DF82430D6E7002316
:107F50008DF81430D2E703238DF81430EB88ADF898
:107F600020302B89ADF82230EB680793C6E7022357
:107F70008DF814302B89ADF82030AB88ADF8223065
:107F8000EB680793AB7DA3F10603B3FA83F35B09B8
:107F90008DF82430B2E704238DF81430EB88ADF867
:107FA00020300023ADF822300793A7E73449354845
:107FB00000F09CFF054630602DE74FF406440DF1BC
:107FC00014080023C8E90033C8E90233C8F81030A8
:107FD00041E7DFF8C48098F80030022B12D098F8FF
:107FE0001430022B00F0A883284B012100221970C5
:107FF0005A600DF114080024C8E90344C8F8084089
:10800000059428E700239A001A4408EB8203002015
:1080100059680090082308F822001D4A1D4801F005
:10802000A5FC002881D03568184A0DF114080023FA
:10803000C8E9023353600593C8F8103048F20D6464
:1080400009E79CF80030072B09D8DFE813F0DC02C1
:10805000080008000E03FA0229002900D602013B9D
:10806000062B6DD8DFE813F04C02260257003F00C4
:108070006C0010021C0000BFCC2500209C250020B5
:10808000C4250020F825002008260020AC2500206B
:108090002C3C0300441F0020D0250020B4250020E4
:1080A000BB4BBC4A1968BC4800230093CCF8043091
:1080B00007238CF80030082301F058FC0446002CFC
:1080C0003FF433AF35680DF1140841F61D5200231B
:1080D0009442C8E90333C8F80830059308BF1C462A
:1080E0003FF4B9AE16E3BCF80230DFF8C88203EB08
:1080F000830308EB8308D8F80C30002B40F04D8246
:1081000004228CF80020D8F80410A348012201F0C2
:10811000CBFC0446D3E7DCF804209D4853888488D0
:1081200001689D4803339BB29B0001EB840100244E
:10813000009403248CF8004001F018FC0446BEE7CC
:108140000DF114080023C8E90333C8F8083005937B
:1081500048F20E647FE68E4C904A21688E48DFF824
:1081600054824FF0000985F804900823CDF8009060
:1081700001F0FCFB8A4B25685B88A18803EB830335
:1081800008EB830208F823905368236002235560AC
:108190001181A38045E77E4A7F48116800230224AD
:1081A0002B719480012201F07FFC3AE7784B794AE9
:1081B0001968794801232B7100230093082301F0EB
:1081C000D5FB2EE72A4641F61D5409EB0A0108EBC0
:1081D0008101EB880889033303440B81D144EB8888
:1081E00008EB8908C3F57F43B8F80A10FD330B4448
:1081F0001546A8F80A3066E76A4B6B4A1C88516836
:1082000065486A4A00234FF0060C85F816C00093B3
:10821000042301F0ABFB18BB04EB840408EB8408D7
:10822000012388F810300BB0BDE8F08F5E48AB69D1
:108230005C4903604FF0000BC0F804B0FFF770FD1D
:10824000002800F06A820223AB7504235248CDF85F
:1082500000B02146EA1801F089FB00283FF465AE22
:10826000AB7D3268022B48F20D64B7D9ADE7EB88DD
:108270002A6949484FF0010C04F10C01002485F8EB
:1082800016C09B00009401F071FB0028E8D10BB0F0
:10829000BDE8F08F2B694048002B14BF0323012356
:1082A0000022AB7504F108010092042305F10C02D1
:1082B00001F05CFB00283FF438AEAB7D3268022B46
:1082C00048F20D648AD980E7032A0CBF05230623F0
:1082D0000022AB7530480092211D042305F10802ED
:1082E00001F044FB0028BBD10BB0BDE8F08F0223A6
:1082F0000022AB750423009227482146EA1801F0BA
:1083000035FB0028ACD10BB0BDE8F08F284B002224
:108310005A604FF406440DF1140852E6AB7DDFF8C5
:108320009480022B08D90AEB8A0208EB8202EB88C0
:10833000118903330B4413814FEA8A0909EB0A01BF
:10834000EB8808EB8101C3F57F434A890DF11408DE
:10835000FD3313440022C8E903224B81C8F80820EA
:1083600005924FF4064476E502232B71CDE90644CD
:108370000DF11408EB68059340460DF11201FFF76B
:10838000CFFC002840F09E8148F2096419E600BF46
:108390000C260020343C0300441F00202C3C03002A
:1083A000B42500201426002090250020283C03003E
:1083B000AC250020D0250020BB4B1B78002B00F003
:1083C0009B81DFF8E8E2BEF80490B9F1010F12D802
:1083D000DFF8EC82039409EB890208EB8202137840
:1083E00083B109F1010399B201299946AEF804302D
:1083F00002F11402F3D9AD48082200210AF018FD59
:108400003568F6E55368DEF8001003F5805C03F18B
:10841000080A002900F06E814B88033301EB8301C9
:108420008C4506D8039BCEF80030DAE79C45F9D995
:1084300019460B680133F5D04B88033301EB8303F6
:108440009C45EFD38C88BC42F0D0B1F800B0BBF1B2
:10845000000FEBD088680130E8D0EB88CEF8001030
:10846000A342D6D100230093914A9248042301F0FD
:108470007DFA002840F07E8109EB890908EB890824
:10848000012388F8103050E5BCF80220DFF8308274
:108490009300134408EB830806200023D8F8041047
:1084A000854A00938CF800000823824801F05EFAA8
:1084B000044604E6BCF80200DFF80482DCF804207D
:1084C00000EB800308EB83034FEA800E596801F547
:1084D0008055002A40F0E28001F10802AA426DD3E3
:1084E000704408EB8008D8F80C30002B55D10420DC
:1084F0008CF8000001226F4801F0D6FA0446DEE550
:108500009CF80A3063B1DFF8B881D8F80C3000224B
:108510008CF80A2023B998F81020002A40F0308106
:108520009CF80B3053B1DFF89881D8F82030002246
:108530008CF80B2013B998F8243073B90DF1140896
:108540000023C8E90333C8F808308CF80030ACF8D1
:108550000230CCF8043005937DE4012318464FEA3D
:10856000830E0EEB030108EB8101DCF8042049685F
:10857000ACF8020001F58055002A00F00381508814
:10858000033002EB8002954200F2D880734408EB7E
:108590008308D8F80C30002BA9D0484B45481968FF
:1085A00002229A8005228CF800200023012201F08B
:1085B0007BFA044683E5AB4292D21A461368013334
:1085C0008ED05388033302EB8303AB4288D8948860
:1085D000BC42F0D01488002CEDD094680134EAD06D
:1085E000CCF80420354C5388A588216831480333E2
:1085F0009BB29B0001EB850199E501238CF80030CB
:108600009CF80A307EE7DFF8B880BCF8081098F8CC
:10861000142098F80030B2FA82F252090131B3FA0C
:1086200083F35B098CF80B20ACF8081000220121C1
:108630008CF80A30ACF802208CF80C208CF8001072
:1086400060E7BCF80220DFF878801C4902EB820367
:1086500008EB830308685D688C88586002201C81E1
:108660000D60888002FA00F313E7BCF80200134C97
:10867000DFF84C80DCF80420A388558800EB8001EB
:1086800008EB8101033349682B444FF0020901F5DF
:108690008055A38000FA09FE8CF8009053880333BC
:1086A00002EB83021AE700BFAC2500201826002049
:1086B000283C0300441F00202C3C03000C26002013
:1086C000D02500200699334A8B88EB800B882B81BC
:1086D000314800940423BDF8124001F047F938BB3B
:1086E0002E4B04EB840403EB8404012323740BB0AE
:1086F000BDE8F08F514693E60DF114082146284855
:1087000008220AF095FBC8E902440594C8F8104015
:1087100048F201643568FFF79EBB0DF11408C8E903
:108720000200059048F20964C8F81000FFF793BBF7
:10873000356848F20D6444E4012364E410680130B4
:108740003FF424AF5088033002EB80008542FFF4F1
:108750001DAF9488BC4205D014881CB194680134C4
:108760007FF43EAF85427FF611AF024610680130BC
:10877000E8D10BE7356848F20D640DF1140820E4E8
:108780001846ECE601F10802FDE62A4648F20E64BE
:108790001BE500BF283C0300441F0020D02500201B
:1087A000182600204068FFF72BBB00BF30B370B520
:1087B0000D4682B0F1B10DF106010446FFF7B0FAA3
:1087C00018B948F2096002B070BDBDF806000D4B43
:1087D000666800EB800003EB800001210C3000F0A4
:1087E00081FC2E60636801220C3300206B60A27252
:1087F00002B070BD48F2046002B070BD48F204607F
:10880000704700BFD025002010B310B582B00DF125
:1088100006010446FFF784FAB0B1BDF806300E4AEF
:1088200003EB830302EB8303DA684AB1A27A3AB11D
:10883000DA680021013A0846DA60A17202B010BD80
:1088400048F2056002B010BD48F2096002B010BDE8
:1088500048F20460704700BFD02500202DE9F047A2
:10886000514B1B7882B083B30C46002945D00A884F
:108870004FF6FF739A4222D04B8803B34D6815F030
:10888000030534D1B1F8089009F103039BB240F21B
:10889000FE32934234D8454A1178074639B9508997
:1088A00011890144194489B2B1F5806F2BD9117D2A
:1088B00089B148F20665284602B0BDE8F08748F263
:1088C0000365284602B0BDE8F08748F201652846F6
:1088D00002B0BDE8F087D08B918B0144194489B276
:1088E000B1F5806FE5D84FF0010841460DE048F240
:1088F0000265284602B0BDE8F08748F20465DAE771
:1089000048F20865D7E7A84629464FEA810A8A4413
:1089100002EB8A0A034401A92548AAF80A3000F0AC
:10892000A7FA1C22064600210AF082FA002E2FD058
:1089300002234FF0000AA6F81480337086F816A0C0
:108940006368336101211B4800F0CCFBF060238891
:10895000338163881648B38001A9A6F80AA0A6F857
:10896000069000F0B3FA47B1C7F804A0F268124BC2
:108970003A601B8987F80AA03B811048012100F06A
:10898000A3FB0446002896D1FFF73AFA254692E762
:10899000BAF80A30C9F57F4909F1FD099944AAF8E6
:1089A0000A9048F2076586E7AC250020D025002014
:1089B000F8250020C8250020B42500200826002026
:1089C0002DE9F04782B068B3524B1B78002B41D0A1
:1089D0000C4639B30A884FF6FF739A4234D04B885D
:1089E00093B34E6816F003063AD1B1F808A00AF125
:1089F00003039BB240F2FE32934234D8464A1178C8
:108A0000054639B9518910890844184480B2B0F537
:108A1000806F2BD9117D59B148F20666304602B0FD
:108A2000BDE8F08748F20466304602B0BDE8F08742
:108A3000D18B908B0844184480B2B0F5806FEBD88E
:108A40004FF00109484613E048F20366304602B091
:108A5000BDE8F08748F20166304602B0BDE8F08715
:108A600048F20266DAE748F20866D7E7B1463046D0
:108A70004FEA8008804402EB88080B442748A8F896
:108A80000A3001A900F0F4F91C22074600210AF07F
:108A9000CFF9002F32D04FF000080323A7F814902D
:108AA0003B7087F8168063683B6101211C4800F029
:108AB00019FBF86023883B816388BB800423A7F8F7
:108AC00006A0BB752B68BB6101A91448A7F80A80F2
:108AD00000F0FCF9C5F80480FA68124B2A601B8983
:108AE000114885F80A802B81012100F0EDFA044637
:108AF000002893D1FFF784F926468FE7B8F80A30AB
:108B0000CAF57F4A0AF1FD0A9A44A8F80AA048F279
:108B1000076683E7AC250020D0250020F82500203B
:108B2000C8250020B42500200826002070B51D4B64
:108B30001B7882B00BB34FF6FF739842044626D0E1
:108B400001A9194800F094F91C22054600210AF0F9
:108B50006FF9BDB105230126EC8001A92B701248E5
:108B60002E7100F0B3F91148314600F0ADFA044619
:108B700090B10024204602B070BD48F20164204646
:108B800002B070BD48F20764204602B070BD48F2E2
:108B90000364204602B070BDFFF732F9204602B0F0
:108BA00070BD00BFAC250020F8250020082600205D
:108BB0002DE9F047324C2478002C59D0002A5BD0A4
:108BC000002B59D09F88012F14D82E4E07EB870415
:108BD0008A4606EB84064FF6FF7E4FF00008347895
:108BE0005CB10137BCB2022C9C8006F114064FF038
:108BF0000107F4D148F2096035E01C68756805F595
:108C0000805C002C31D06588033504EB8504644515
:108C100005D3C3F80080E4E7AC45FAD92C462568B3
:108C20000135F6D06588033504EB8505AC45F0D3F6
:108C3000B4F80490F145EFD0B4F80090B9F1000F0A
:108C4000EAD0A1680131E7D01C60A5888542D5D162
:108C500025885545D2D1A168116019680A4B516029
:108C60001B8913810020BDE8F08705F10804CEE7D9
:108C700048F20160BDE8F08748F20460BDE8F08783
:108C8000AC250020D0250020B4250020304B1B78D7
:108C9000002B56D0002957D0002A55D02DE9F0419D
:108CA000B2F804E0BEF1010F14D82A4D0EEB8E038A
:108CB00005EB83054FF6FF774FF0000C2B7863B17F
:108CC0000EF101039BB2022B938005F114054FF0C6
:108CD000010EF3D148F209602EE013686C6804F5C8
:108CE00080585BB35C88033403EB8403434505D3AE
:108CF000C2F800C0E4E7A045FAD923461C68013455
:108D0000F6D05C88033403EB8404A045F0D39E883E
:108D1000BE42F0D01E88002EEDD09E680136EAD00B
:108D200013601C888442D9D19B680B6012680A4B7F
:108D30004A601B890B810020BDE8F08104F1080323
:108D4000D4E748F20160704748F20460704700BF02
:108D5000AC250020D0250020B4250020304B1B7806
:108D6000002B56D0002957D0002A55D02DE9F041CC
:108D7000B2F804E0BEF1010F14D82A4D0EEB8E03B9
:108D800005EB83054FF6FF774FF0000C2B7863B1AE
:108D90000EF101039BB2022B938005F114054FF0F5
:108DA000010EF3D148F209602EE013686C6804F5F7
:108DB00080585BB35C88033403EB8403434505D3DD
:108DC000C2F800C0E4E7A045FAD923461C68013484
:108DD000F6D05C88033403EB8404A045F0D39E886E
:108DE000BE42F0D01E88002EEDD09E680136EAD03B
:108DF00013609C888442D9D19B680B6012680A4B2F
:108E00004A601B890B810020BDE8F08104F1080352
:108E1000D4E748F20160704748F20460704700BF31
:108E2000AC250020D0250020B425002020B119B1A8
:108E300003680B600020704748F20460704700BF71
:108E400099B110B4B2FBF3F403FB1424A4B244B9F7
:108E5000C0E9001484608281C38120465DF8044B20
:108E6000704709205DF8044B70470E20704700BF23
:108E700030B482B050E8013F9DB2C4892544848952
:108E8000A54228BF2D1B0489A54202BFBFF32F8F27
:108E9000002207E0C5EA030540E80154002CE9D1AF
:108EA0004FF001028DF803200193019B9DF80320F0
:108EB0000B602AB10B880068184402B030BC7047C0
:108EC00002F0FF03184602B030BC70470A884B8896
:108ED0009A4201D00020704750E8012FC2EA0242B6
:108EE00040E80123002BF7D10120704730B482B055
:108EF00050E8023F1FFAA3F5C488A54202BFBFF3A2
:108F00002F8F00220DE0C48925448489A54228BF03
:108F10002D1BC3EA054540E80254002CE8D14FF070
:108F200001028DF803200193019B9DF803200B6043
:108F30002AB14B880068184402B030BC704702F078
:108F4000FF03184602B030BC704700BF0A884B8848
:108F50009A4201D00020704750E8022FC2EA224214
:108F600040E80223002BF7D1012070474A09012372
:108F700001F01F0100EB820003FA01F100F088B854
:108F80004B0910B501F01F04012100EB8300A14043
:108F900000F070F8E04000F0010010BD01F01F0289
:108FA00001234909934000EB8100D94300F07EB8CA
:108FB0004B0901F01F0150F82300C84000F00100E8
:108FC000704700BF2DE9F04F01F1FF3A83B04FEA3F
:108FD0005A130D46044601934FF000094FF0010863
:108FE00054F8293004EB89066FEA030B9BFAABFBBC
:108FF000BBFA8BFBBBF1200F25D00BEB491B5D456A
:109000004FEA49170CD81EE03368DB4393FAA3F309
:10901000B3FA83F3202B07EB030B14D05D4512D971
:109020000BF01F034FEA5B1008FA03F104EB80001A
:109030009A4600F01FF820FA0AF0C307E4D4584615
:1090400003B0BDE8F08F019A4A4509F1010301D050
:109050009946C5E7AB46F2E710B4034653E8000F64
:109060000A4643E8002494F0000FF7D15DF8044B62
:10907000704700BF10B4034653E8000F40EA0102F6
:1090800043E8002494F0000FF6D15DF8044B7047DC
:1090900010B4034653E8002F42EA010043E80004FD
:1090A00094F0000FF6D15DF8044B704710B40346FE
:1090B00053E8002F02EA010043E8000494F0000F97
:1090C000F6D15DF8044B704710B4034653E8000F27
:1090D00000EB010243E8002494F0000FF6D15DF8A4
:1090E000044B704710B4034653E8002F02EB010015
:1090F00043E8000494F0000FF6D15DF8044B70478C
:1091000010B4034653E8002FA2EB010043E800042B
:1091100094F0000FF6D15DF8044B704710B403468D
:10912000012253E8001F41EA020043E8000494F0E2
:10913000000FF6D15DF8044B704700BF10B4034632
:10914000002253E8000F00EA020143E8001494F003
:10915000000FF6D15DF8044B704700BFB8B130B4D2
:10916000D0E90112521A0468D2B2531E2160DBB258
:1091700042B101680A685C1E551C0D601370E3B2B1
:10918000FF2BF6D103680020187130BC70470E2009
:10919000704700BFF0B583B0044600250DF107000D
:1091A0008DF80750FEF722FCD4E900311A688A4294
:1091B00010D9511E19602168A3680F6812F8015C6C
:1091C0000A79268AE068DB1BDBB29A4206FB0505BA
:1091D00038BF0B719DF80700FEF72EFC284603B040
:1091E000F0BD00BF30B5054683B000230DF1070088
:1091F0000C468DF80730FEF7F9FB2A681368591CF6
:109200001160E9682A8A641AB4FBF2F41C709DF8B4
:109210000700FEF711FC03B030BD00BF826842B109
:1092200010B5044643690168006998470023A360AC
:1092300010BD70470EB400B582B0039921B104ABE4
:1092400001AA019300F0ACF802B05DF804EB03B0A2
:10925000704700BF2DE9F04F164683B0B142DDE9FB
:109260000C920F4605469A46C0F095800B464FF08B
:109270000108B3FBF6F39E4208F10108F9D9D04585
:1092800038BFD04612F00103019302D1B9F1000FAB
:109290005ED1AA68012403E00AF1FF3A06FB04F458
:1092A000BAF1010FF8D8B7FBF4F39E42F6D9DFF814
:1092B000ECA007E0B442B4FBF6F31AD3AA681C464C
:1092C000B7FBF3F31AF803B0BBF10A0F04FB1377F3
:1092D00028D02B68511CA96003F802B0D5E90132EF
:1092E0009A42E7D32846FFF799FFB4FBF6F3B4425E
:1092F000E4D2019B9BB1B9F1000F10D02024C845E6
:1093000009F1FF390BD2AB682A68591CA960D45403
:10931000D5E901329A4214D2B9F1000FEFD103B06E
:10932000BDE8F08F511C2B68A9604FF00D019954D6
:10933000D5E901329A42CCD32846FFF76FFFAA68DD
:10934000C7E72846FFF76AFFB9F1000FD7D1E6E774
:1093500093071AD42024AA68C84502F1010199D2C2
:109360002B68A9609C54D5E901329A4209F1FF3972
:1093700003D2B9F1000FEFD18CE72846FFF74EFF7B
:10938000AA68B9F1000FE7D184E7BAF1000F0CBF6A
:1093900030242024DFE74FF0010870E73C3C030055
:1093A000002900F054822DE9F04FDFF8B8950C78D1
:1093B00085B0064690460D464FF00D0A10E00A2C87
:1093C000B36800F0AD803268591CB160D454D6E95E
:1093D00001329A4280F0A0802C78002C00F0878027
:1093E0000135002C00F08380252CE8D12946002788
:1093F0000D4611F8012B2D2A00F08880302A00F04C
:1094000088802B2A7AD02A2A00F09980A2F1300392
:10941000092B4FF000040BD804EB840402EB440446
:1094200015F8012FA2F13003092BA4F13004F3D970
:109430002E2A00F09080002301E015F8012F02F0A1
:10944000FB016829F9D0252A00F07781583AD1B27A
:10945000202947D8202A45D8DFE812F035014400FA
:1094600044004400440044004400440044004400DC
:10947000440043011301440044004400440013012C
:10948000440044004400440044004400D20044002E
:109490004400A2004400940044004400350101202F
:1094A0009842024638BF1A460292002C40F0508182
:1094B000B80740F16E81002B40F04E821C46BBF194
:1094C000000FC0F20A827A0700F11A8207F0030245
:1094D000022A00F0EA81CDE9004759460A223046C7
:1094E000FFF7B8FE01352C78002C7FF479AF337B81
:1094F000002B40F01C8105B0BDE8F08F0D4611F83F
:10950000012B2D2A47F004077FF478AF47F00107BD
:109510006EE747F002076BE73046FFF77FFE5BE739
:109520003268591CB16002F803A0D6E901239342C6
:10953000FFF449AF3046FFF771FEB36843E7D8F850
:1095400000301A1DC8F800206A781C682E2A05F120
:1095500001057FF470AF6A78A2F13003092B05F1A1
:1095600001054FF000033FF66AAF03EB830302EB04
:10957000430315F8012FA2F130010929A3F13003AB
:10958000F3D95CE7D8F80020111DC8F80010116865
:109590003046CDE900470A22FFF75CFE0135A2E71D
:1095A000D8F800301A1DC8F8002017F00107D3F8CA
:1095B00000B040F0F080BBF1000F03D0584609F036
:1095C0005FFC0746BC4240F24381002C00F0408122
:1095D000202205E0BC4200F03B81002C00F03881E5
:1095E000B1683368481CB0605A54D6E901309842DB
:1095F00004F1FF34EED33046FFF710FE2022E9E7F6
:10960000D8F80020131DC8F80030B3683168176817
:10961000581C3022B060CA54D6E90123934280F02E
:10962000EF803268581C7821B060D154D6E90132FD
:109630009A4280F0E0800F2F03D93B461B090F2B85
:10964000FCD84FF0805406E00F2C4FEA14137FF63D
:1096500049AFB2681C46B7FBF4F319F803B0BBF18D
:109660000A0F04FB137754D03368511CB16003F820
:1096700002B0D6E901329A42E6D33046FFF7CEFD7A
:10968000E2E7D8F80020111DC8F80010D2F800B0A9
:109690008BEAEB72A2EBEB72092A7FF700AFDFF8DF
:1096A000C8C2012011466329ACFB02E200F10100AF
:1096B0004FEAD202F6DC9842024638BF1A460292BE
:1096C000002C45D1F4E6D8F80020111DC8F8001090
:1096D00011683046CDE900471022FFF7BBFD013588
:1096E00001E7D8F800301A1DC8F800201C78B368CC
:1096F0000A2C00F011813268591CB160D454D6E9AB
:1097000001329A42FFF4EEAE3046FFF787FD013595
:10971000E9E63368511CB16003F802A0D6E90132D2
:109720009A42A1D33046FFF779FDB2689CE73046F4
:1097300005B0BDE8F04FFFF771BDB3683168581C44
:10974000B060CA54D6E901329A42DDD20135CAE688
:10975000BBF1000F59DB7A0757D4B80702D5002BAD
:109760003FF4ADAEF9073FF5AAAE94B120220299BD
:10977000A142BFF4A4AEB168481CB0603068425446
:10978000D6E90101814204F1FF3480F0D480002C3D
:10979000EDD1002493E69BF80030002B00F0E08030
:1097A000B0685F46CBF101020A2B02EB070B3CD0FD
:1097B000411CB16031680B54D6E90130984226D281
:1097C00017F8013F002BEFD15C457FF68BAE2027C9
:1097D00002E05C453FF486AEB2683368511CB1606C
:1097E0009F54D6E901329A4204F1FF34F1D3304656
:1097F000FFF714FDEDE73046FFF710FDB2681AE7FA
:109800003046FFF70BFDB3680BE7013CA5E7304698
:109810000292FFF703FD17F8013F002BD4D0029A04
:10982000B0680A2B02EB070BC2D1411CB160316852
:1098300001F800A0D6E901108842B9D33046CDE93D
:109840000232FFF7EBFCDDE90232B068B0E77047A7
:109850009BF80040002C3FF445AE0A2CB0680ED0B7
:109860003368421CB2601C54D6E90130984214D2CD
:109870001BF8014F002C3FF435AE0A2CF0D13368B1
:10988000421CB26003F800A0D6E901309842E7D349
:109890003046FFF7C3FCB068E2E73046FFF7BEFC96
:1098A0001BF8014F002CD8D11CE6002B7FF413AE1F
:1098B0008CB130220299A142BFF40DAEB168481CB0
:1098C000B06030684254D6E90101814204F1FF34AE
:1098D0003BD2002CEED10024FDE5B1684A1CB260F9
:1098E00032682D205054D6E901219142CBF1000B72
:1098F000FFF4ECAD30460393FFF790FC039BE5E5E6
:10990000B1684A1CB26032682B205054D6E901215C
:109910009142FFF4DBADEDE73268591CB16002F80B
:1099200003A0D6E901239342FFF4E5AE3046FFF7EA
:1099300075FCB368DFE630460393FFF76FFC039BCB
:109940002022002C7FF413AF23E730460393FFF768
:1099500065FC039B3022BCE7F9073FF5B0AD18E783
:109960009B4631E73C3C0300CDCCCCCC2DE9F0410B
:1099700082B0002858D0002A68D0D0F800E0BEF1AC
:10998000000F68D01D4673B34768D7F80480B3FB57
:10999000F8F708FB1737002F37D18F073AD112F0AD
:1099A000030F3CD1C768B94211D23348334C344B12
:1099B000344A3549001BC0081024000440F001005F
:1099C0000094FDF773F9204602B0BDE8F081046908
:1099D0004E1E3544A542E8D8DEF80C40A44602B03D
:1099E000BDE8F04160472448244C254B274A2649CE
:1099F000001BC0080924000440F001000094FDF79A
:109A000055F9204602B0BDE8F0811B481B4C1C4BA9
:109A10001F4AECE71848194C194B1E4AC9E716486B
:109A2000164C174B1C4AC4E71348144C144B1B4AE2
:109A30001549001BC0080E24000440F001000094EA
:109A4000FDF734F9204602B0BDE8F0810A480B4C1E
:109A50000B4B134AECE7094C0748094B114A0A49DA
:109A6000001BC0080824000440F001000094FDF72A
:109A70001DF92046A8E700BFF45803007C580300F6
:109A8000003E0300503D0300543C03009C3C030097
:109A9000E83C0300143D03002C3D03004C3C030054
:109AA000E03C0300883C0300F0B583B0002843D0BD
:109AB000D0F800C0BCF1000F4ED03AB34768D7F8D9
:109AC00000E00EF1FF370F4231D1C768B94210D222
:109AD00029482A4C2A4B2B4A2B49001BC00810242A
:109AE000000440F001000094FDF7E0F8204603B0C8
:109AF000F0BD04694D1E0EFB0255A542E8D8DCF806
:109B00001040A44603B0BDE8F04060471B4C1A4823
:109B10001B4B1E4A1C49001BC0080924000440F0CE
:109B200001000094FDF7C2F8204603B0F0BD1248D2
:109B3000124C134B164ACFE7104C0F48104B154AE6
:109B40001149001BC0080E24000440F001000094DD
:109B5000FDF7ACF82046CAE7084C0748084B0E4A08
:109B60000949001BC0080824000440F001000094CB
:109B7000FDF79CF82046BAE7F45803007C58030030
:109B8000143E0300A03D0300543C03009C3C030032
:109B9000783D03004C3C0300883C030029DF7047FC
:109BA00028DF7047034B187A0122B0FA80F05A740C
:109BB000400970473026002030B5394D2B7A87B0E8
:109BC000002B39D0374B1C6802232B722379002BD2
:109BD0003DD0012B24D022689368C3B10023CDE986
:109BE000033302930093A36805930323019323791E
:109BF000002B48D0012B07D1E368616904911B0356
:109C0000022102938DF8001093686846984700235C
:109C1000254926482B726B60FFF798F907B030BDD5
:109C2000D4E903031844FFF7BBFF20B31128D2D1B6
:109C300001232B7207B030BD1B491C48FFF756F9B2
:109C4000184B044618600028BED16860E6E7D4E9E6
:109C50000520121AB2F5805F28BF4FF48052D4E974
:109C600003139208012A38BF012201441844FFF768
:109C700095FF0028DAD12B7C002BCFD101460220A2
:109C800000F016F8CAE72069E1680123CDE9020176
:109C90008DF8003063690493936868469847B6E787
:109CA00030260020482600204426002020260020C0
:109CB000831E012B3FD810B5334C237A86B0002B7E
:109CC00037D0022B31D103283AD0304B00221B6809
:109CD000E2601A79002A40D0012A26D1D3E9042172
:109CE00001328A421A6120D10020207219688A68E4
:109CF000BAB10022CDE90322029200929A68019043
:109D000005921A79002A35D0012A07D1DA685B69F1
:109D100004931303022202938DF800208B68684697
:109D200098471B491B48FFF711F9637C23B9FFF7DC
:109D300043FF06B010BD704707F0BEFD06B010BD72
:109D4000E3680133082B01D8E360EEE70F4B0022F4
:109D50001B68E26022720D20C8E7D3E90512881A59
:109D6000B0F5805F94BF121802F5805291429A615B
:109D7000DBD1B9E7012218698DF80020DA685B6948
:109D80000493CDE90202C9E73026002048260020CE
:109D9000442600202026002000F0FD03012B00D0E7
:109DA000704730B53B4DA0F10100B0FA80F02B7A3E
:109DB0004009002287B028746A74002B4AD0364BC1
:109DC0001C6802232B722379002B4ED0012B07D164
:109DD000D4E903031844FFF7E3FE48B311281BD06E
:109DE000226893687BB10023CDE90333029300938B
:109DF000A36805930323019323790BB3012B0ED0A2
:109E00009368684698470023244925482B726B6065
:109E1000FFF79CF807B030BD01232B72FAE7E36827
:109E2000616904911B03022102938DF80010E7E79A
:109E30002B7C002BEED101460220FFF739FFE9E72A
:109E40002069E16801238DF8003063690493CDE94E
:109E50000201D5E711491248FFF748F80E4B0446B6
:109E600018600028ADD16860D4E7D4E90520121A43
:109E7000B2F5805F28BF4FF48052D4E903139208F3
:109E8000012A38BF012201441844FFF787FE002849
:109E9000A4D1CDE73026002048260020442600200B
:109EA00020260020FFF75AB92DE9F041058A033139
:109EB000043D4E198046B6FBF5F6FFF76BF9A0B3EB
:109EC000F6B24FF48073013E0446C580C0F80080AE
:109ED00083802BD00346002508E06279AE4202F170
:109EE000010262713860C0F800801FD040461F46F2
:109EF000FFF750F9013503460028EED16779791E46
:109F000017D02246013399421268FBD1D2F8008063
:109F10005FB12668002501E03446366821460135E8
:109F20004046FFF75FF9AF42F6D800242046BDE86F
:109F3000F08120682146FFF755F9F6E7F8B5467934
:109F40000146701E13D00A4600230133984212685E
:109F5000FBD1176856B10D68002401E029462D6831
:109F600001343846FFF73EF9A642F7D8F8BDBDE800
:109F7000F8400868FFF736B904300121FFF7B2B89E
:109F80002DE9F041012104460430FFF7B9F810F043
:109F9000FF0301D0BDE8F0816779791E16D0224613
:109FA000013399421268FBD1D2F80080002FF1D022
:109FB0002668002501E034463668214601354046D2
:109FC000FFF710F9AF42F6D8BDE8F08120682146CE
:109FD000BDE8F041FFF706B92DE9F8430546C6880C
:109FE0004079144606FB00F2043A04EB030C1F1DF3
:109FF000624538BFD41ABE428846B7FBF6F106FB6D
:10A00000117002D801392D68FCD1371AA74228BF38
:10A0100027469CB14FF000090430E41B28443A461F
:10A0200008EB090108F0F6FEA642B9442D68374650
:10A030004FF0000028BF2746002CEDD1BDE8F88383
:10A040002DE9F8430546C6884079144606FB00F220
:10A05000043A04EB030C1F1D624538BFD41ABE42FC
:10A060008846B7FBF6F106FB117002D801392D685E
:10A07000FCD1371AA74228BF27469CB14FF00009F0
:10A0800004302918E41B3A4608EB090008F0C2FE28
:10A09000A642B9442D6837464FF0000028BF274636
:10A0A000002CEDD1BDE8F88341DF704700B583B0E7
:10A0B00000230DF107008DF80730FDF797FCF1EE56
:10A0C000103A23F09F03E1EE103ABFF35F8F0B4B82
:10A0D0004022C3F884219DF80700FDF7ADFC07F08E
:10A0E000FBFB28B920BF40BF20BF03B05DF804FBD5
:10A0F000FFF7DAFF03B05DF804FB00BF00E100E00A
:10A10000F0B5044683B000250DF107000E468DF82A
:10A110000750FDF76BFC2368A268186859689142E4
:10A1200038BF4D1CA84212D0586859688A420BD8D3
:10A1300000225A60E268531E072B19D8DFE803F0AB
:10A140004540183B1818183301315960F2E7217C5B
:10A15000002941D158685D68AA423AD859602268FE
:10A16000A16813688B4234BF013300231360E1E719
:10A170006368314600FB023008F04CFE2268136829
:10A1800051688B4282BFA06801300918CB1A9168D0
:10A190009DF80700994238BF9360FDF74DFC0024FD
:10A1A000204603B0F0BD6368D6E9006703EBC0004A
:10A1B000C0E90067E2E76368326843F82020DDE722
:10A1C0006368328823F81020D8E7636832781A541D
:10A1D000D4E701355D60C2E79DF80700FDF72CFC70
:10A1E0000424204603B0F0BD70B5044682B00023BD
:10A1F0000DF107000D468DF807301646FDF7F6FB0A
:10A20000236818685968884211D019682EB91A68ED
:10A21000A068824238BF561C1E60E268531E072B9E
:10A220000DD8DFE803F0411A0C260C0C0C329DF817
:10A230000700FDF701FC0524204602B070BD6368ED
:10A24000284601FB023108F0E5FD9DF80700FDF707
:10A25000F3FB0024204602B070BD63689DF8070040
:10A2600033F811302B80FDF7E7FB0024204602B0C5
:10A2700070BD63689DF8070053F821302B60FDF72F
:10A28000DBFB0024204602B070BD63689DF8070028
:10A2900003EBC101D1E90023C5E90023FDF7CCFBA5
:10A2A0000024204602B070BD63689DF807005B5C27
:10A2B0002B70FDF7C1FB0024204602B070BD00BF2B
:10A2C000036818685B68C01AB0FA80F040097047EC
:10A2D00001600B6843604A68934204BF00234360F7
:10A2E000704700BF436843B1026891680B44436004
:10A2F0005268934204BF00234360704770B54468BE
:10A30000064620680D4618B908E02468206828B180
:10A31000B368294698470028F7D12068286025604F
:10A3200070BD00BF4368186808B102681A607047C2
:10A3300043681868704700BF4368186818B908E098
:10A340000346006828B18142FAD10A681A600120E8
:10A3500070477047114910B4A1F5947205E052F8A6
:10A360003330984238BF21460CD28C1AE30F03EBEE
:10A37000E4035B10914202EBC304F0D808485DF897
:10A38000044B704702D904F10802EEE76068044B01
:10A390005DF8044B002808BF184670476843030067
:10A3A0002C42030030B4B84B1B78062B20D0B74B9F
:10A3B0001B68062B00F08180B54AD2F8883043F440
:10A3C0007003C2F88830BFF34F8FBFF36F8F4FF029
:10A3D0001023D3F80022002AC0F28681D3F8043279
:10A3E000002BC0F28181AB4BAB4A1A6030BC704786
:10A3F000AA4B1B681D07DAD1A94B1B6803F0F002BA
:10A40000302A00F09B8003F0E003402B00F09680A0
:10A41000A34B1B6803F0F003302B00F0A080A04B8F
:10A420001B6803F0F002302A77D003F0E003402BE2
:10A4300073D09B4B1B6803F0F003302B00F01481AA
:10A44000974B1B6803F0F002302A52D003F0E00370
:10A45000402B4ED0924B1B6803F0F003302B00F0E2
:10A46000F5808F4B1B6803F0F003302B00F0D78092
:10A470008B4B1B6803F0F003502B7ED0884B1B687E
:10A4800003F0F002302A23D003F0E003402B1FD06A
:10A49000834B1B6803F0F002302A03D003F0E00383
:10A4A000402B84D14FF08043D3F80024D20744BF1F
:10A4B0006FF00102C3F8002479E77A4B1B68062B82
:10A4C0007FF47AAF784A136843F48063136073E7CC
:10A4D000764B6D4A1B681278754903F04F03062AC4
:10A4E0000B607FF464AF6D4B1B6819077FF45FAF9F
:10A4F000CEE7654A11784FF0804300220629C3F861
:10A500000C21C3F81021C3F838257FF450AF634BFA
:10A510001B681B077FF44BAF9CE7664B5A4A1B68CE
:10A5200012786549C3F34233062A0B607FF43FAFCC
:10A530005A4B1B6819077FF43AAF7AE75F4B524AD0
:10A540001B6812785E49C3F30423062A0B607FF46C
:10A550002EAF524B1B681C077FF429AF58E74A4BBC
:10A56000584A1B7858491160062B7FF420AF4B4B9B
:10A570001B6818077FF41BAF51E74FF08052534B15
:10A58000D2F80414C3F82015D2F80814C3F824151F
:10A59000D2F80C14C3F82815D2F81014C3F82C15EF
:10A5A000D2F81414C3F83015D2F81814C3F83415BF
:10A5B000D2F81C14C3F84015D2F82014C3F844157F
:10A5C000D2F82414C3F84815D2F82814C3F84C154F
:10A5D000D2F82C14C3F85015D2F83014C3F854151F
:10A5E000D2F83414C3F86015D2F83814C3F86415DF
:10A5F000D2F83C14C3F86815D2F840142248C3F8C6
:10A600006C15D2F844140278C3F87015062A7FF44A
:10A61000CEAE224B1B6818077FF4C9AE2EE71A4B4B
:10A620002B4C1B782B492C482C4A052525600125ED
:10A630000D6000243F21062B046011607FF4B7AE4B
:10A64000164B1B681C077FF4B2AE11E70E4B244A71
:10A650001B780321062B11607FF4A9AE0F4B1B68FA
:10A660001D077FF4A4AEFCE61E4A0749D3680978AB
:10A6700023F080730629D3607FF499AE074B1B68E3
:10A680001A077FF494AEDBE6E00F00F03001001013
:10A6900000ED00E0EC1800200090D003E40F00F083
:10A6A000E80F00F0340100103C1700405802001081
:10A6B000E40E0040440200103C050040240300105A
:10A6C0004035014074C007400DF0ADBA00C00040F5
:10A6D000105600408856004018560040145600405E
:10A6E000A0050040F0ED00E0184A0123C2F804354F
:10A6F000D2F80034002BFBD04FF010231521134A61
:10A70000C3F80012D2F80034002BFBD04FF0102316
:10A7100015210E4AC3F80412D2F80034002BFBD0E6
:10A7200000230A49C2F80435D1F80034002BFBD0CD
:10A73000BFF34F8F0649074BCA6802F4E062134328
:10A74000CB60BFF34F8F00BFFDE700BF00E00140CB
:10A7500000ED00E00400FA0510B568B90E4CA368DE
:10A76000012262703BB1D3E900230020A260984728
:10A77000A368002BF7D110BD0128FCD1064C23693A
:10A78000A070002BF7D0D3E9002301202261984765
:10A790002369002BF7D110BD4C26002070B910B5ED
:10A7A000074CA368012262703BB1D3E9002300206B
:10A7B000A2609847A368002BF7D110BD704700BF77
:10A7C0004C26002030B5012883B004D003281DD0CA
:10A7D000B0B103B030BD224C00230DF107008DF85D
:10A7E0000730FDF703F923784BB3E3689DF80700C2
:10A7F00001330122E360A270FDF71EF903B030BD02
:10A80000184B0122C3F8802003B030BD144C00F077
:10A81000ADF800230DF107008DF80730FDF7E6F8DD
:10A82000E368013BE360E5682DB19DF80700FDF7A3
:10A8300003F903B030BD00F0ABF8A570F5E70A48A6
:10A840006360A3602361E36000F084F807F044F8DC
:10A8500010B101232370C8E700F088F8F9E700BFC2
:10A860004C26002000E100E059A7020030B585B079
:10A87000047845688DF80040D0E90240064A074B4D
:10A88000039053F82130019552F821108DF80840BB
:10A890006846984705B030BD602600206426002039
:10A8A00030B585B0047845688DF80040D0E90240A5
:10A8B000064A074B039053F82130019552F82110B6
:10A8C0008DF808406846984705B030BD60260020E6
:10A8D00064260020F0B51A4B90F800C0194C1A4DB0
:10A8E00091F81DE044F82C200746086945F82C0033
:10A8F00003F80CE00C4616460FCC89B06D460FC528
:10A9000094E80F0085E80F00CDF810C0BEF1000FED
:10A910000AD0002E0D4A694607F1040008BF3246EE
:10A9200001F0D4F809B0F0BD002E094A694607F1DC
:10A930000C0008BF324600F079FE09B0F0BD00BF40
:10A94000C02F002064260020602600206DA8020091
:10A95000A1A80200044A137923B901211060918053
:10A96000184670478520704768260020074B1A68F4
:10A97000D20704D4C021012283F800131A604FF0DB
:10A9800080430122C3F81825704700BF00E100E0B2
:10A99000044B01221A604FF08042D2F81834DB03D6
:10A9A000FBD470470C00004010B5174B1A6882B0FA
:10A9B00062B10021154A19601B68507900934FF06D
:10A9C00080410123009CC1F8083398B1104B1A68EC
:10A9D000BAB100221A601B6801934FF08042022135
:10A9E0000A4B0198C2F808131B68012002B0BDE8A9
:10A9F00010401847116853718847054B1A68002AA0
:10AA0000E7D102B010BD00BF000100406826002061
:10AA10000401004030B5204C94F8585083B0002D0C
:10AA200036D14FF0FF304FF0FF314FF0FF33C4E924
:10AA30000001C4E90C01C4E90E01C4E91001C4E934
:10AA400012010422294604F15400C4E90233C4E986
:10AA50000433C4E90633C4E90833C4E90A3323657F
:10AA600008F0E6F90D4A0E4B0E491D60C02082F831
:10AA70000603402010601B68019301984FF00043CB
:10AA80000122284684F85820C1F8043303B030BDB1
:10AA9000082003B030BD00BF7026002000E100E0B8
:10AAA0007C61004000600040034B93F85800003880
:10AAB00018BF0120704700BF70260020F0B46F4B14
:10AAC0001D1895F93040002C61DA8C78A707C4F383
:10AAD000400C53D41C6A013400F0C8805C6A013415
:10AAE00000F0BD800C260A2453F82450013552D0C2
:10AAF000651CB5423FD253F82570013700F0A7809E
:10AB0000A51CB54237D253F82570013700F09F805D
:10AB1000E71CB7422FD253F8275001353AD0271DF2
:10AB2000B74228D253F82750013533D0671DB742BA
:10AB300021D253F8275001352CD0A71DB7421AD285
:10AB400053F82750013525D0E71DB74213D253F8EB
:10AB5000275001351ED004F10807B7420BD253F835
:10AB60002750013516D00934B44204D2DC6A0134CE
:10AB700008BF0B240FD00420F0BC70471C680134C0
:10AB800067D05C68013460D008260224ACE7082056
:10AB9000F0BC70473C461E1865B243F8242086F886
:10ABA0003050BCF1000F02D11C4484F848008A7870
:10ABB000540714D4D6073ED44C784FF0A04600F585
:10ABC000E072A40046F822402D4EC40800F0070CA5
:10ABD000375D012202FA0CF23A4332558A7812F0BC
:10ABE00002021CD0AB0003F1804303F5C043097897
:10ABF000D3F8104524F4473424F44074C3F81045C6
:10AC000002020904D3F8100501F4403102F4F852AD
:10AC10000A430243C3F810250020F0BC7047083DEA
:10AC20002B44087893F8501041EA801183F85010B3
:10AC30001046F0BC7047820002F1A042D2F80047F3
:10AC400024F00204C2F80047BEE70124A3E72C4623
:10AC5000A1E7002485F830401A602546A7E70926B9
:10AC600085F830605A62344635469DE7082685F8F7
:10AC700030601A623446354696E700BF70260020E1
:10AC8000C426002070B42C4C251883B095F93020D0
:10AC9000072A1CDD224492F848309B09032B40D040
:10ACA000012B0CBF4FF400334FF44033800000F110
:10ACB000A040D0F8002722F44032C0F80027D0F896
:10ACC00000271343C0F8003703B070BC7047D3B2FD
:10ACD000072BF9D8900000F1804000F5C04002F148
:10ACE00040039B00D0F810659BB203F1804303F54D
:10ACF000C04346F00106C0F81065002018601B68CC
:10AD00000193019B0029DFD095F9303054F82330AE
:10AD1000002BD9D00949012303FA02F2C1F8042318
:10AD2000D2E74FF0A043D3F81035C34003F001033E
:10AD300002331B04BAE700BF702600200060004009
:10AD40004FF0A043D3F8103523FA00F000F00100D3
:10AD5000704700BF2DE9F04186B0C04A002301933F
:10AD60001168012900F0C8811E46BD4B1A68012AEE
:10AD700000F0B481BB4B1A68012A00F0A181BA4BE4
:10AD80001A68012A00F08E81B84B1A68012A00F077
:10AD90007B81B74B1A68012A00F05281B54B1A68C3
:10ADA000012A00F03F81B44B1A68012A08D0B34B46
:10ADB0001A68012A00F0AC81F6B906B0BDE8F0814E
:10ADC000AF4AD2F804231206F1D500221A6019689E
:10ADD0000491196E0498012903F1600346F080067E
:10ADE0000AD11A601B6805934FF0A043059AD3F867
:10ADF0001035019346F00046A24F00240125A30020
:10AE000003F180432E4203F5C0434FEA45050BD0C2
:10AE1000D3F8100557F82420D3F81015C0F30420F8
:10AE2000C1F3014102B190470134082CE7D1002E53
:10AE3000C3DA00224FF0FF33CDE90223914C012504
:10AE400002AE94F95000471C37D0C0F3C20C06ABD9
:10AE500003EB0C0700F0070317F80C2C05FA03F3BB
:10AE60001A42C1B200F03F0027D02218890992F996
:10AE7000302054F82280B8F1000F00F09D810329A2
:10AE800000F09D81820002F1A04217F8147CD2F8F4
:10AE900000C71F40CCF3014C0BD0BCF1020F0CD10A
:10AEA000032900F0BF810027B8F1000F06D0C0478A
:10AEB00004E0BCF1030F00F0A381002794F95100D6
:10AEC000411C32D0C0F3C20E06AB03EB0E0C00F0F7
:10AED00007031CF80C2C05FA03F31A42C1B200F068
:10AEE0003F0022D02218890992F9302054F822809C
:10AEF000B8F1000F00F07B81032900F07B81820014
:10AF000002F1A04E1CF814CCDEF800271CEA030F57
:10AF1000C2F3014200F03A81022A06D1032900F06F
:10AF20008481B8F1000F00D0C04794F95200421C50
:10AF300032D0C0F3C20E06AB03EB0E0C00F00703D9
:10AF40001CF80C2C05FA03F31A42C1B200F03F00C2
:10AF500022D02218890992F9302054F82280B8F1C1
:10AF6000000F00F03B81032900F03B81820002F1D9
:10AF7000A04E1CF814CCDEF800271CEA030FC2F325
:10AF8000014200F0ED80022A06D1032900F0508131
:10AF9000B8F1000F00D0C04794F95300431C32D0E1
:10AFA000C0F3C20E06AB03EB0E0C00F007021CF858
:10AFB0000C3C05FA02F21342C1B200F03F0022D06D
:10AFC0002318890993F9303054F82380B8F1000F21
:10AFD00000F0FB80032900F0FB80830003F1A04E0A
:10AFE0001CF814CCDEF800371CEA020FC3F301434F
:10AFF00000F09C80022B06D1032900F01C81B8F1DF
:10B00000000F00D0C047002F3FF4D7AE4FF0A04351
:10B01000019AD3F810359A423FF4CFAE029A0193C9
:10B0200003920EE7164AD2F8042351067FF5BBAE11
:10B0300000221A601B680493049B46F04006B2E6A7
:10B040000F4AD2F8042390067FF5A8AE00221A60BA
:10B050001B680493049B46F020069FE600610040B5
:10B0600004610040086100400C6100401061004034
:10B0700014610040186100401C6100407C61004088
:10B0800000600040702600206C4AD2F80423D406E9
:10B090007FF57FAE00221A601B680493049B46F084
:10B0A000100676E6654AD2F8042315077FF56CAEE4
:10B0B00000221A601B680493049B46F0080663E6AE
:10B0C0005E4AD2F8042357077FF559AE00221A6072
:10B0D0001B680493049B46F0040650E6574AD2F8D6
:10B0E000042392077FF546AE00221A601B68049382
:10B0F000049B46F002063DE65049D1F8046316F081
:10B1000001063FF432AE136013680493049B2CE6EF
:10B1100000221A601B6805934FF0A043059AD3F8EC
:10B1200010350193002E3FF484AE63E6032B7FF4C9
:10B130006AAF03297FF463AF4FF40032DEF80037C3
:10B1400023F44033CEF80037DEF800371343CEF84F
:10B150000037B8F1000F3FF459AF0137FFB251E7A4
:10B16000032A7FF419AF03297FF412AF4FF40032A2
:10B17000DEF8003723F44033CEF80037DEF800372E
:10B1800001371343FFB2CEF8003701E7032A7FF4FB
:10B19000CCAE03297FF4C5AE4FF40032DEF80037A1
:10B1A00023F44033CEF80037DEF80037013713437D
:10B1B000FFB2CEF80037B4E603297FF47EAE16F86E
:10B1C0000C201A4306F80C205CE603297FF41BAF21
:10B1D00016F80E30134306F80E30FEE603297FF40E
:10B1E000DBAE16F80E201A4306F80E20BEE6032941
:10B1F0007FF49BAE16F80E201A4306F80E207EE66A
:10B2000003297FF451AE4FF40037D2F8003723F40E
:10B210004033C2F80037D2F800373B43C2F800375A
:10B22000012741E64FF44037EFE74FF44032B5E7EE
:10B230004FF440329CE74FF440327FE7006000401B
:10B24000014B1B68184700BFCC260020114B9842C9
:10B250001DD130B583B000230DF107008DF8073004
:10B260000D46FCF7C3FB0C4B1C794CB99DF807004D
:10B270001D6001221A71FCF7DFFB204603B030BDD0
:10B280009DF80700FCF7D8FB112003B030BD00206B
:10B29000704700BF00200040CC260020034B98429E
:10B2A00003D1034B00221A601A717047002000403E
:10B2B000CC2600202DE9F041644B1A6888B002BB0F
:10B2C000634F97F82E30002B29D1624B1A685AB180
:10B2D00000221A601B68039302218DF814103B684A
:10B2E00003993A7405A898475B4B1C68002C30D032
:10B2F00000221A601B680593059B3A7408B0BDE8EC
:10B30000F081534F00221A60196897F82E3000918F
:10B310000099002B4ED097F82F30002B63D14F4B64
:10B320001A68002AD1D000211960186897F82D20DA
:10B330007B8B01909342019894B263D874D0434BB5
:10B34000474A002119601B68029301230299136088
:10B35000BBE77E69002ED1D04FF000480125B6FA38
:10B3600086F101F146039B0003F1804202F5E042C1
:10B37000A3F58C73D2F800E083F0040028FA01F101
:10B38000C0F3800CDB0805A826EA0106BEF1000F19
:10B390000BD01460126804928DF818308DF8145098
:10B3A0003B688DF819C0049A9847002ED7D108B091
:10B3B000BDE8F081FA68786839898DF81430069014
:10B3C000ADF81C10002A2CD02648398B7A60012257
:10B3D000FB607983398102603B6805A898470023A8
:10B3E00087F82F306DE7FB68786839898DF814206D
:10B3F0000690ADF81C10A3B1398B7B60FA6079839D
:10B400003981E9E7398978681B1B9BB289B2154CF1
:10B410007B83C91A00EB4101C4F82C16C4F830260E
:10B420008DE700233B74D7E7FB684BB10D48798368
:10B43000012187F82F10C0F82C36C0F830267EE79F
:10B4400001227B8387F82F2079E700BF0471004039
:10B45000D42600201071004014710040007100409B
:10B46000047000400070004030B56E4AD2F80433DA
:10B4700099058BB068D5D2F82431002B64D0002315
:10B48000C2F82431D2F8243101934FF40171664B94
:10B490000198C2F8081393F8291009B901215160E5
:10B4A000604902228DF81820D1F88024C1F8802448
:10B4B0009869D968099200240025CDE90710C3E9ED
:10B4C0000645D3E9001206A89047564AD2F81C3127
:10B4D000C3B1554B5869196A88426AD993F8281044
:10B4E00001F0FF00002964D1C2F81C01D2F81C1140
:10B4F000039103999C68186A196A205C01311962EA
:10B50000C2F81C05474AD2F84431DBB10021464B52
:10B51000C2F84411D2F8440193F829100090009821
:10B5200009B1012111609A6962B1586AD968002293
:10B530009A610122CDE907108DF8182006A8D3E9F9
:10B54000001290470BB030BD364AD2F804335B0787
:10B55000BBD5D2F80831002BB7D0334B99690029FD
:10B560003ED00021C2F80811D2F8081104910499C4
:10B57000D868596AD2F8182542545A6A9969013232
:10B580005A625A6A8A42A0D1DA69002A31D0DD684B
:10B590005C6A18699A6101210022D860DA615A62F6
:10B5A0008DF81810CDE90754D3E9001206A890478A
:10B5B0008BE71C4A0021C2F81C11D2F81C21029210
:10B5C000029A5A69002A9DD058699A688DF8181015
:10B5D00008905961079206A8D3E90012904791E7B5
:10B5E000C2F80811D2F8080105900598D2F818257C
:10B5F000C7E793F8292012B90A4A01215160094A84
:10B600004FF40171C2F80813596ADA6808910024EE
:10B61000012007928DF81800D3E900129C6106A85A
:10B62000904752E700200040082700202DE9F04114
:10B63000604F06792C2303FB067382B093F82A30FF
:10B64000002B40F0898005460C4600685A49904618
:10B65000FFF7FCFD00287BD12368591C0CD0012288
:10B660004FF0A04102FA03F3C1F80835236803F54F
:10B67000E073032241F8232063685A1C06D003F5C7
:10B68000E0734FF0A042002142F823102B68A2691A
:10B69000C3F82425217D637D2A680B43C2F86C35ED
:10B6A000D4E900122B68C3F81425C3F80C15237DC8
:10B6B000012B5DD02C2303FB06F3FA18C2F804809B
:10B6C0002269FA50B8F1000F2FD02A68237F3B4C33
:10B6D0000021C2F81C11D2F81C2100922A68DDF862
:10B6E00000C0C2F84411D2F844112A6801910199AE
:10B6F000C2F804432A6842F3073100294FEA1232A4
:10B700002EDB01F1604101F561415B01DBB281F8A3
:10B7100000332B682A4C43F307325209C3F3043336
:10B72000012101FA03F344F822302C23296803FB9A
:10B730000676042400230122C1F80045C6E9063339
:10B7400086F82A2086F82930736102B0BDE8F081BE
:10B75000112002B0BDE8F081082002B0BDE8F08100
:10B76000184902F00F025B011144DBB20B76D0E7FF
:10B77000A368591C06D003F5E0734FF0A0420021E6
:10B7800042F82310E3685A1C0DD001224FF0A0416B
:10B7900002FA03F3C1F80835E36803F5E073032206
:10B7A00041F82320E3682A68A168C2F80835C2F886
:10B7B00010157FE70827002069B40200800002000E
:10B7C00000E100E0FCEC00E0F8B52F4D04790268E0
:10B7D0002C2303FB045300215B68C2F8001583B1DE
:10B7E00003682A4AC3F808230268294E42F3073344
:10B7F0005B092033C2F30432012101FA02F246F858
:10B80000232003684FF0FF32D3F80CC5D3F814752A
:10B81000D3F80815D3F81065C3F81425C3F80C2520
:10B8200003689445C3F80825C3F8102506D00CF525
:10B83000E07C4FF0A043022243F82C207B1C06D072
:10B8400007F5E0774FF0A043022243F82720721C4F
:10B8500006D006F5E0764FF0A043022243F82620FA
:10B860004B1C06D001F5E0714FF0A043022243F8D3
:10B8700021200068FFF712FD2C2303FB0454002352
:10B8800084F82A306360F8BD082700208402020093
:10B8900000E100E02DE9F041314E05792C2303FB56
:10B8A00005630446586984B000284CD15A619960F8
:10B8B000186283F828002268C2F81C01D2F81C1113
:10B8C000226802910121029F91602268D3F808C08A
:10B8D000C2F81C01D2F81C11019101991F6A196A62
:10B8E0001CF8077001311962C2F81C755A6812B150
:10B8F00004B0BDE8F0815F691A6A216897421BD9DC
:10B90000864602E093F828200ABBD1F81C21002AC1
:10B91000F8D0C1F81CE1D1F81C210392039AD3F8A6
:10B9200020801A6A1CF8088001321A62C1F81C854E
:10B930001A6A9742E9D82168D1F81C31002BFBD054
:10B940000123CB6004E0112004B0BDE8F0810F209A
:10B950002C2303FB056500236B6104B0BDE8F08177
:10B960000827002030B5574BD3F824218BB0002A8C
:10B9700075D00022C3F82421D3F824210492022296
:10B980008DF81820049AD3F880144F4AC3F8801415
:10B990000991D3F83C15D36808910024002507933A
:10B9A000C2E906451168536806A89847454BD3F885
:10B9B000442152B10021444AC3F84411D3F8440150
:10B9C000916903900398002938D13E4BD3F8202188
:10B9D0005AB10021C3F82011D3F82021029201208E
:10B9E000394A029CD8605069D8B9364BD3F85821EF
:10B9F000AAB10021C3F85811D3F85801324A019076
:10BA00000198506958B1D3F84C05936808908DF8A7
:10BA100018105161079306A8D2E9001398470BB09C
:10BA200030BDD3F84C05936808908DF8181051611B
:10BA3000079306A8D2E900139847D6E7D3F83C3518
:10BA4000D168089300240025012307918DF8183050
:10BA5000C2E90645D2E9001306A89847B5E7D3F82E
:10BA600010110029A2D0C3F81021D3F810111648E4
:10BA7000059105998469D3F83C15A14296D1C46912
:10BA8000A4B1D3F80052846125F02005C3F8005218
:10BA9000D0E90343C26101220891C3600168436891
:10BAA00007948DF8182006A898477FE7C26884613C
:10BAB0000123CDE907218DF81830D0E9001306A83D
:10BAC000984773E700200040382700202DE9F04315
:10BAD00007796E4E07EBC70306EB830387B093F835
